{
  "_format": "hh-sol-artifact-1",
  "contractName": "DarkVault",
  "sourceName": "contracts/DarkVault.sol",
  "abi": [
    {
      "inputs": [
        {
          "internalType": "address",
          "name": "_token",
          "type": "address"
        }
      ],
      "stateMutability": "nonpayable",
      "type": "constructor"
    },
    {
      "anonymous": false,
      "inputs": [
        {
          "indexed": true,
          "internalType": "address",
          "name": "user",
          "type": "address"
        },
        {
          "indexed": false,
          "internalType": "bytes32",
          "name": "encryptedAmountHash",
          "type": "bytes32"
        }
      ],
      "name": "EncryptedDeposit",
      "type": "event"
    },
    {
      "anonymous": false,
      "inputs": [
        {
          "indexed": true,
          "internalType": "address",
          "name": "user",
          "type": "address"
        },
        {
          "indexed": false,
          "internalType": "bytes32",
          "name": "encryptedAmountHash",
          "type": "bytes32"
        }
      ],
      "name": "WithdrawProcessed",
      "type": "event"
    },
    {
      "anonymous": false,
      "inputs": [
        {
          "indexed": true,
          "internalType": "address",
          "name": "user",
          "type": "address"
        },
        {
          "indexed": false,
          "internalType": "bytes32",
          "name": "encryptedAmountHash",
          "type": "bytes32"
        }
      ],
      "name": "WithdrawRequested",
      "type": "event"
    },
    {
      "inputs": [
        {
          "internalType": "uint256",
          "name": "amount",
          "type": "uint256"
        }
      ],
      "name": "deposit",
      "outputs": [],
      "stateMutability": "nonpayable",
      "type": "function"
    },
    {
      "inputs": [
        {
          "internalType": "address",
          "name": "",
          "type": "address"
        }
      ],
      "name": "depositTimestamps",
      "outputs": [
        {
          "internalType": "uint256",
          "name": "",
          "type": "uint256"
        }
      ],
      "stateMutability": "view",
      "type": "function"
    },
    {
      "inputs": [
        {
          "internalType": "address",
          "name": "user",
          "type": "address"
        }
      ],
      "name": "getEncryptedBalance",
      "outputs": [
        {
          "internalType": "bytes",
          "name": "",
          "type": "bytes"
        }
      ],
      "stateMutability": "view",
      "type": "function"
    },
    {
      "inputs": [
        {
          "internalType": "address",
          "name": "user",
          "type": "address"
        }
      ],
      "name": "getYieldEarned",
      "outputs": [
        {
          "internalType": "uint256",
          "name": "",
          "type": "uint256"
        }
      ],
      "stateMutability": "view",
      "type": "function"
    },
    {
      "inputs": [
        {
          "internalType": "address",
          "name": "",
          "type": "address"
        }
      ],
      "name": "pendingWithdrawals",
      "outputs": [
        {
          "internalType": "uint256",
          "name": "",
          "type": "uint256"
        }
      ],
      "stateMutability": "view",
      "type": "function"
    },
    {
      "inputs": [],
      "name": "processWithdraw",
      "outputs": [],
      "stateMutability": "nonpayable",
      "type": "function"
    },
    {
      "inputs": [
        {
          "internalType": "uint256",
          "name": "amount",
          "type": "uint256"
        }
      ],
      "name": "requestWithdraw",
      "outputs": [],
      "stateMutability": "nonpayable",
      "type": "function"
    },
    {
      "inputs": [],
      "name": "underlyingToken",
      "outputs": [
        {
          "internalType": "contract IERC20",
          "name": "",
          "type": "address"
        }
      ],
      "stateMutability": "view",
      "type": "function"
    }
  ],
  "bytecode": "0x60806040523480156200001157600080fd5b5060405162001770380380620017708339818101604052810190620000379190620000e8565b806000806101000a81548173ffffffffffffffffffffffffffffffffffffffff021916908373ffffffffffffffffffffffffffffffffffffffff160217905550506200011a565b600080fd5b600073ffffffffffffffffffffffffffffffffffffffff82169050919050565b6000620000b08262000083565b9050919050565b620000c281620000a3565b8114620000ce57600080fd5b50565b600081519050620000e281620000b7565b92915050565b6000602082840312156200010157620001006200007e565b5b60006200011184828501620000d1565b91505092915050565b611646806200012a6000396000f3fe608060405234801561001057600080fd5b50600436106100885760003560e01c806363a854be1161005b57806363a854be14610115578063745400c914610145578063b6b55f2514610161578063f3f437031461017d57610088565b8063013036141461008d578063240be944146100975780632495a599146100c7578063402dc4e4146100e5575b600080fd5b6100956101ad565b005b6100b160048036038101906100ac9190610c39565b6104f6565b6040516100be9190610c7f565b60405180910390f35b6100cf61050e565b6040516100dc9190610cf9565b60405180910390f35b6100ff60048036038101906100fa9190610c39565b610532565b60405161010c9190610da4565b60405180910390f35b61012f600480360381019061012a9190610c39565b610603565b60405161013c9190610c7f565b60405180910390f35b61015f600480360381019061015a9190610df2565b610769565b005b61017b60048036038101906101769190610df2565b6108b8565b005b61019760048036038101906101929190610c39565b610bbe565b6040516101a49190610c7f565b60405180910390f35b6000600460003373ffffffffffffffffffffffffffffffffffffffff1673ffffffffffffffffffffffffffffffffffffffff16815260200190815260200160002054905060008111610234576040517f08c379a000000000000000000000000000000000000000000000000000000000815260040161022b90610e7c565b60405180910390fd5b6000600460003373ffffffffffffffffffffffffffffffffffffffff1673ffffffffffffffffffffffffffffffffffffffff1681526020019081526020016000208190555080600360003373ffffffffffffffffffffffffffffffffffffffff1673ffffffffffffffffffffffffffffffffffffffff16815260200190815260200160002060008282546102c89190610ecb565b92505081905550600360003373ffffffffffffffffffffffffffffffffffffffff1673ffffffffffffffffffffffffffffffffffffffff1681526020019081526020016000205433604051602001610321929190610f68565b604051602081830303815290604052805190602001206040516020016103479190610fbf565b604051602081830303815290604052600260003373ffffffffffffffffffffffffffffffffffffffff1673ffffffffffffffffffffffffffffffffffffffff16815260200190815260200160002090816103a1919061120b565b5060008054906101000a900473ffffffffffffffffffffffffffffffffffffffff1673ffffffffffffffffffffffffffffffffffffffff1663a9059cbb33836040518363ffffffff1660e01b81526004016103fd9291906112ec565b6020604051808303816000875af115801561041c573d6000803e3d6000fd5b505050506040513d601f19601f82011682018060405250810190610440919061134d565b61047f576040517f08c379a0000000000000000000000000000000000000000000000000000000008152600401610476906113c6565b60405180910390fd5b3373ffffffffffffffffffffffffffffffffffffffff167f423d6a0970c9ae62ed82ac0bbdb16f2c2ba9cbdebc501e0bf0c2869c88cf0149826040516020016104c891906113e6565b604051602081830303815290604052805190602001206040516104eb9190611410565b60405180910390a250565b60016020528060005260406000206000915090505481565b60008054906101000a900473ffffffffffffffffffffffffffffffffffffffff1681565b6060600260008373ffffffffffffffffffffffffffffffffffffffff1673ffffffffffffffffffffffffffffffffffffffff168152602001908152602001600020805461057e90611038565b80601f01602080910402602001604051908101604052809291908181526020018280546105aa90611038565b80156105f75780601f106105cc576101008083540402835291602001916105f7565b820191906000526020600020905b8154815290600101906020018083116105da57829003601f168201915b50505050509050919050565b600080600160008473ffffffffffffffffffffffffffffffffffffffff1673ffffffffffffffffffffffffffffffffffffffff16815260200190815260200160002054148061069157506000600360008473ffffffffffffffffffffffffffffffffffffffff1673ffffffffffffffffffffffffffffffffffffffff16815260200190815260200160002054145b1561069f5760009050610764565b6000600160008473ffffffffffffffffffffffffffffffffffffffff1673ffffffffffffffffffffffffffffffffffffffff16815260200190815260200160002054426106ec9190610ecb565b9050600060059050600063bbf81e008383600360008973ffffffffffffffffffffffffffffffffffffffff1673ffffffffffffffffffffffffffffffffffffffff16815260200190815260200160002054610747919061142b565b610751919061142b565b61075b919061149c565b90508093505050505b919050565b80600360003373ffffffffffffffffffffffffffffffffffffffff1673ffffffffffffffffffffffffffffffffffffffff1681526020019081526020016000205410156107eb576040517f08c379a00000000000000000000000000000000000000000000000000000000081526004016107e290611519565b60405180910390fd5b80600460003373ffffffffffffffffffffffffffffffffffffffff1673ffffffffffffffffffffffffffffffffffffffff168152602001908152602001600020600082825461083a9190611539565b925050819055503373ffffffffffffffffffffffffffffffffffffffff167f6b354985518f8b6cfb2f751a0de1ca7cfee449239f4489bddd3fd2b04159975b8260405160200161088a91906113e6565b604051602081830303815290604052805190602001206040516108ad9190611410565b60405180910390a250565b600081116108fb576040517f08c379a00000000000000000000000000000000000000000000000000000000081526004016108f2906115b9565b60405180910390fd5b60008054906101000a900473ffffffffffffffffffffffffffffffffffffffff1673ffffffffffffffffffffffffffffffffffffffff166323b872dd3330846040518463ffffffff1660e01b8152600401610958939291906115d9565b6020604051808303816000875af1158015610977573d6000803e3d6000fd5b505050506040513d601f19601f8201168201806040525081019061099b919061134d565b6109da576040517f08c379a00000000000000000000000000000000000000000000000000000000081526004016109d1906113c6565b60405180910390fd5b80600360003373ffffffffffffffffffffffffffffffffffffffff1673ffffffffffffffffffffffffffffffffffffffff1681526020019081526020016000206000828254610a299190611539565b92505081905550600360003373ffffffffffffffffffffffffffffffffffffffff1673ffffffffffffffffffffffffffffffffffffffff1681526020019081526020016000205433604051602001610a82929190610f68565b60405160208183030381529060405280519060200120604051602001610aa89190610fbf565b604051602081830303815290604052600260003373ffffffffffffffffffffffffffffffffffffffff1673ffffffffffffffffffffffffffffffffffffffff1681526020019081526020016000209081610b02919061120b565b5042600160003373ffffffffffffffffffffffffffffffffffffffff1673ffffffffffffffffffffffffffffffffffffffff168152602001908152602001600020819055503373ffffffffffffffffffffffffffffffffffffffff167f30674ac546e421813a72a0ce86553255770957d86d9ad28235c1381d782c46f682604051602001610b9091906113e6565b60405160208183030381529060405280519060200120604051610bb39190611410565b60405180910390a250565b60046020528060005260406000206000915090505481565b600080fd5b600073ffffffffffffffffffffffffffffffffffffffff82169050919050565b6000610c0682610bdb565b9050919050565b610c1681610bfb565b8114610c2157600080fd5b50565b600081359050610c3381610c0d565b92915050565b600060208284031215610c4f57610c4e610bd6565b5b6000610c5d84828501610c24565b91505092915050565b6000819050919050565b610c7981610c66565b82525050565b6000602082019050610c946000830184610c70565b92915050565b6000819050919050565b6000610cbf610cba610cb584610bdb565b610c9a565b610bdb565b9050919050565b6000610cd182610ca4565b9050919050565b6000610ce382610cc6565b9050919050565b610cf381610cd8565b82525050565b6000602082019050610d0e6000830184610cea565b92915050565b600081519050919050565b600082825260208201905092915050565b60005b83811015610d4e578082015181840152602081019050610d33565b60008484015250505050565b6000601f19601f8301169050919050565b6000610d7682610d14565b610d808185610d1f565b9350610d90818560208601610d30565b610d9981610d5a565b840191505092915050565b60006020820190508181036000830152610dbe8184610d6b565b905092915050565b610dcf81610c66565b8114610dda57600080fd5b50565b600081359050610dec81610dc6565b92915050565b600060208284031215610e0857610e07610bd6565b5b6000610e1684828501610ddd565b91505092915050565b600082825260208201905092915050565b7f4e6f2070656e64696e67207769746864726177616c0000000000000000000000600082015250565b6000610e66601583610e1f565b9150610e7182610e30565b602082019050919050565b60006020820190508181036000830152610e9581610e59565b9050919050565b7f4e487b7100000000000000000000000000000000000000000000000000000000600052601160045260246000fd5b6000610ed682610c66565b9150610ee183610c66565b9250828203905081811115610ef957610ef8610e9c565b5b92915050565b6000819050919050565b610f1a610f1582610c66565b610eff565b82525050565b60008160601b9050919050565b6000610f3882610f20565b9050919050565b6000610f4a82610f2d565b9050919050565b610f62610f5d82610bfb565b610f3f565b82525050565b6000610f748285610f09565b602082019150610f848284610f51565b6014820191508190509392505050565b6000819050919050565b6000819050919050565b610fb9610fb482610f94565b610f9e565b82525050565b6000610fcb8284610fa8565b60208201915081905092915050565b7f4e487b7100000000000000000000000000000000000000000000000000000000600052604160045260246000fd5b7f4e487b7100000000000000000000000000000000000000000000000000000000600052602260045260246000fd5b6000600282049050600182168061105057607f821691505b60208210810361106357611062611009565b5b50919050565b60008190508160005260206000209050919050565b60006020601f8301049050919050565b600082821b905092915050565b6000600883026110cb7fffffffffffffffffffffffffffffffffffffffffffffffffffffffffffffffff8261108e565b6110d5868361108e565b95508019841693508086168417925050509392505050565b60006111086111036110fe84610c66565b610c9a565b610c66565b9050919050565b6000819050919050565b611122836110ed565b61113661112e8261110f565b84845461109b565b825550505050565b600090565b61114b61113e565b611156818484611119565b505050565b5b8181101561117a5761116f600082611143565b60018101905061115c565b5050565b601f8211156111bf5761119081611069565b6111998461107e565b810160208510156111a8578190505b6111bc6111b48561107e565b83018261115b565b50505b505050565b600082821c905092915050565b60006111e2600019846008026111c4565b1980831691505092915050565b60006111fb83836111d1565b9150826002028217905092915050565b61121482610d14565b67ffffffffffffffff81111561122d5761122c610fda565b5b6112378254611038565b61124282828561117e565b600060209050601f8311600181146112755760008415611263578287015190505b61126d85826111ef565b8655506112d5565b601f19841661128386611069565b60005b828110156112ab57848901518255600182019150602085019450602081019050611286565b868310156112c857848901516112c4601f8916826111d1565b8355505b6001600288020188555050505b505050505050565b6112e681610bfb565b82525050565b600060408201905061130160008301856112dd565b61130e6020830184610c70565b9392505050565b60008115159050919050565b61132a81611315565b811461133557600080fd5b50565b60008151905061134781611321565b92915050565b60006020828403121561136357611362610bd6565b5b600061137184828501611338565b91505092915050565b7f5472616e73666572206661696c65640000000000000000000000000000000000600082015250565b60006113b0600f83610e1f565b91506113bb8261137a565b602082019050919050565b600060208201905081810360008301526113df816113a3565b9050919050565b60006113f28284610f09565b60208201915081905092915050565b61140a81610f94565b82525050565b60006020820190506114256000830184611401565b92915050565b600061143682610c66565b915061144183610c66565b925082820261144f81610c66565b9150828204841483151761146657611465610e9c565b5b5092915050565b7f4e487b7100000000000000000000000000000000000000000000000000000000600052601260045260246000fd5b60006114a782610c66565b91506114b283610c66565b9250826114c2576114c161146d565b5b828204905092915050565b7f496e73756666696369656e742062616c616e6365000000000000000000000000600082015250565b6000611503601483610e1f565b915061150e826114cd565b602082019050919050565b60006020820190508181036000830152611532816114f6565b9050919050565b600061154482610c66565b915061154f83610c66565b925082820190508082111561156757611566610e9c565b5b92915050565b7f416d6f756e74206d757374206265203e20300000000000000000000000000000600082015250565b60006115a3601283610e1f565b91506115ae8261156d565b602082019050919050565b600060208201905081810360008301526115d281611596565b9050919050565b60006060820190506115ee60008301866112dd565b6115fb60208301856112dd565b6116086040830184610c70565b94935050505056fea2646970667358221220b21fdb4a5508d2144529f900aac99851ed87b73a9aaccf183bc2b4f37725a82d64736f6c63430008140033",
  "linkReferences": {},
  "deployedLinkReferences": {}
}